:100000000C9430010C944D010C944D010C944D0155
:100010000C944D010C944D010C944D010C944D0128
:100020000C944D010C944D010C944D010C944D0118
:100030000C944D010C944D010C944D010C944D0108
:100040000C944D010C944D010C94790C0C944D01C1
:100050000C944D010C94CB0B0C944D010C944D0160
:100060000C944D010C944D01FF0805090B09110971
:1000700017091D09230929092F093509A009A00914
:10008000A009A009A009A009A0093B094109470945
:100090004D09A00959095F0965096B0971097709BB
:1000A0007D09830989098F099509A009A009A0097B
:1000B000A009A009A009A009A009A009A009A009F8
:1000C000A009A009A009A009A009A009A009A009E8
:1000D000A0095309A009A009A009A009A009A00925
:1000E000A009A009A009A009A0099B09B509BB099D
:1000F000C109C709CD09D309D909DF09E509EB0908
:10010000560A560A560A560A560A560A560AF10955
:10011000F709FD09030A560A0F0A150A1B0A210AE4
:10012000270A2D0A330A390A3F0A450A4B0A560A9A
:10013000560A560A560A560A560A560A560A560ABF
:10014000560A560A560A560A560A560A560A560AAF
:10015000560A560A560A090A560A560A560A560AEC
:10016000560A560A560A560A560A560A560A510A94
:100170006B0A710A770A7D0A830A890A8F0A950A2F
:100180009B0AA10A000B000B000B000B000B000BDD
:10019000000BA70AAD0AB30AB90A000BC50ACB0ABD
:1001A000D10AD70ADD0AE30AE90AEF0AF50AFB0ACF
:1001B000000B000B000B000B000B000B000B000BE7
:1001C000000B000B000B000B000B000B000B000BD7
:1001D000000B000B000B000B000BBF0A150B1B0BD9
:1001E000210B270B2D0B330B390B3F0B450B4B0B07
:1001F000B60BB60BB60BB60BB60BB60BB60B510B5C
:10020000570B5D0B630BB60B6F0B750B7B0B810BE9
:10021000870B8D0B930B990B9F0BA50BAB0BB60BA1
:10022000B60BB60BB60BB60BB60BB60BB60BB60BC6
:10023000B60BB60BB60BB60BB60BB60BB60BB60BB6
:10024000B60BB60BB60B690BB60BB60BB60BB60BF3
:10025000B60BB60BB60BB60BB60BB60BB60BB10B9B
:1002600011241FBECFEFD8E0DEBFCDBF11E0A0E06C
:10027000B1E0E2E6FBE102C005900D92A230B107C9
:10028000D9F721E0A2E0B1E001C01D92AB32B20784
:10029000E1F70E94C1010C94AF0D0C940000ECE753
:1002A000F0E08081887F8083AEE7B0E08C91816050
:1002B0008C938C9182608C938C9184608C938C91C4
:1002C00088608C9380818062808380818064808359
:1002D00080818F778083EAE7F0E080818860808387
:1002E0008081876080838081806880830895F99908
:1002F000FECF92BD81BD60BD8FB384608FBB8FB3D5
:1003000082608FBB0895F999FECF92BD81BD8FB3F6
:1003100081608FBB80B50895F89484B18E6084B9F4
:1003200017B88AB188678AB984B18E7084B981E1BF
:1003300085B988E78AB988E090E00E94B00C60E057
:1003400082E00E948F0C60E081E00E948F0C8FE2BF
:1003500095E70E94D70C0E944F010E94170D0E9442
:10036000660D8BB180618BB967E580E090E00E94FB
:10037000770180E090E00E9483018093C60078942A
:1003800008950E948C0180910201813579F41092C8
:100390001C0110921B0110921E0110921D0110925F
:1003A0001801109217011092020131C080910201D0
:1003B000873589F481E090E090931C0180931B01C4
:1003C00010921E0110921D01909318018093170145
:1003D000109202011CC0809102018534C1F482E0B8
:1003E00090E090931C0180931B0121E030E030935A
:1003F0001E0120931D019093180180931701E6ECD4
:10040000F0E081E480838AE08083109202011C99ED
:100410005CC02FEF86E791E0215080409040E1F7EB
:1004200000C00000809117019091180101969093EF
:100430001801809317018130910589F481E090E0E3
:1004400090931C0180931B0110921E0110921D01BC
:10045000E6ECF0E08AE580838AE0808334C0823075
:10046000910599F482E090E090931C0180931B0128
:1004700081E090E090931E0180931D01E6ECF0E096
:1004800081E480838AE080831EC00397E4F01092A9
:1004900018011092170110921C0110921B0110926A
:1004A0001E0110921D01E6ECF0E082E480838AE0F8
:1004B000808309C02FEF86E791E021508040904073
:1004C000E1F700C000001C9BF5CF80911B019091CB
:1004D0001C018130910509F43AC68230910509F476
:1004E00048C6892B11F00C94B80B8BB11BB88BB19B
:1004F00080628BB98BB18BB910921A0110921901DD
:1005000080911F0190912001009739F401969093FA
:10051000200180931F010C94B80B8130910509F0E4
:100520009EC08091020181110CC034990AC0359996
:1005300008C08091150190911601019711F00C945B
:10054000B80B81E090E090931601809315018091A3
:100550001101909112018F3F91053CF08EEF90E0D8
:10056000909312018093110106C0029724F4109217
:10057000120110921101349B0AC08FE59AEE019787
:10058000F1F700C0000081E4809302011BC0359B9D
:100590000AC08FE59AEE0197F1F700C0000082E4EF
:1005A000809302010FC018990DC082E5809302016B
:1005B00009C09FEF26E781E0915020408040E1F79D
:1005C00000C00000189BF5CF809102018234E1F059
:1005D000823581F1813411F00C94B80B81E090E008
:1005E00090931E0180931D01809111019091120141
:1005F0000A96909312018093110161E00E94310DDF
:10060000109202010C94B80B81E090E090931E01CF
:1006100080931D0180911101909112010A9790938E
:1006200012018093110161E00E94310D10920201CC
:100630000C94B80B809111019091120190931001CC
:1006400080930F0180911F0190912001019690935A
:10065000200180931F01109202010C94B80B82308C
:10066000910509F084C01092160110921501809135
:100670000201811108C0349906C0359904C0189B45
:1006800002C00C94B80B80910F01909110018F3F24
:1006900091053CF08EEF90E09093100180930F0154
:1006A00006C0029724F41092100110920F01349B9F
:1006B0000AC081E4809302018FE59AEE0197F1F779
:1006C00000C000001BC0359B0AC082E48093020179
:1006D0008FE59AEE0197F1F700C000000FC018995E
:1006E0000DC082E58093020109C09FEF26E781E0FB
:1006F000915020408040E1F700C00000189BF5CFEA
:10070000809102018234B1F0823521F1813411F0FF
:100710000C94B80B80910F01909110010A96909360
:10072000100180930F0161E00E94310D10920201CF
:100730000C94B80B80910F01909110010A9790933F
:10074000100180930F0161E00E94310D10920201AF
:100750000C94B80B80911F01909120010196909309
:10076000200180931F01109202010C94B80B83307A
:10077000910509F089C080910201811106C0349968
:1007800004C0359902C01899F3C780910D0190916A
:100790000E018F3F91053CF08EEF90E090930E019B
:1007A00080930D0106C0029724F410920E0110925E
:1007B0000D01349B0DC081E4809302019FE728E383
:1007C00081E0915020408040E1F700C000001EC051
:1007D000359B0DC082E4809302019FE728E381E00E
:1007E000915020408040E1F700C000000FC01899F0
:1007F0000DC082E58093020109C09FEF26E781E0EA
:10080000915020408040E1F700C00000189BF5CFD8
:1008100080910201823431F0823511F1813409F086
:10082000A7C70FC080910D0190910E010A96909379
:100830000E0180930D0161E00E94E80C109202010C
:1008400097C780910D0190910E010A9790930E0128
:1008500080930D0161E00E94E80C1092020188C7AC
:1008600080910D0190910E0190930C0180930B01EA
:1008700080911F0190912001019690932001809317
:100880001F011092020174C78430910509F081C0E4
:1008900080910201811106C0349904C0359902C0CB
:1008A000189966C780910B0190910C018F3F9105BB
:1008B0003CF08EEF90E090930C0180930B0106C00A
:1008C000029724F410920C0110920B01349B0DC07E
:1008D00081E4809302019FE728E381E0915020406A
:1008E0008040E1F700C000001EC0359B0DC082E4CF
:1008F000809302019FE728E381E0915020408040EF
:10090000E1F700C000000FC018990DC082E5809388
:10091000020109C09FEF26E781E09150204080400E
:10092000E1F700C00000189BF5CF809102018234EE
:1009300031F0823511F1813409F01AC70FC080916E
:100940000B0190910C010A9690930C0180930B017E
:1009500061E00E94E80C109202010AC780910B012D
:1009600090910C010A9790930C0180930B0161E028
:100970000E94E80C10920201FBC680911F01909129
:10098000200101969093200180931F011092020193
:10099000EFC68530910509F083C080910201811175
:1009A00006C0349904C0359902C01899E1C68091F7
:1009B000090190910A018F3F91053CF08EEF90E084
:1009C00090930A018093090106C0029724F41092C3
:1009D0000A0110920901349B0AC081E4809302014C
:1009E0008FE59AEE0197F1F700C000001BC0359B20
:1009F0000AC082E4809302018FE59AEE0197F1F735
:100A000000C000000FC018990DC082E5809302015C
:100A100009C09FEF26E781E0915020408040E1F738
:100A200000C00000189BF5CF80910201823431F0A4
:100A3000823511F1813409F09BC60FC08091090104
:100A400090910A010A9690930A018093090162E04D
:100A50000E94E80C109202018BC6809109019091CE
:100A60000A010A9790930A018093090162E00E94AB
:100A7000E80C109202017CC680911F019091200128
:100A800001969093200180931F018091090190911C
:100A90000A0190930801809307011092020168C631
:100AA0008630910509F07BC080910201811106C05A
:100AB000349904C0359902C018995AC6809107012B
:100AC000909108018F3F91053CF08EEF90E090935C
:100AD00008018093070106C0029724F410920801D0
:100AE00010920701349B0AC081E4809302018FE5D4
:100AF0009AEE0197F1F700C000001BC0359B0AC0B9
:100B000082E4809302018FE59AEE0197F1F700C02D
:100B100000000FC018990DC082E58093020109C042
:100B20009FEF26E781E0915020408040E1F700C030
:100B30000000189BF5CF80910201823431F082359C
:100B400011F1813409F014C60FC080910701909112
:100B500008010A96909308018093070162E00E94C1
:100B6000E80C1092020104C68091070190910801DF
:100B70000A97909308018093070162E00E94E80CB5
:100B800010920201F5C580911F01909120010196FC
:100B90009093200180931F0110920201E9C58730D4
:100BA000910509F089C080910201811106C0349934
:100BB00004C0359902C01899DBC580910501909158
:100BC00006018F3F91053CF08EEF90E09093060177
:100BD0008093050106C0029724F41092060110923A
:100BE0000501349B0DC081E4809302019FE728E357
:100BF00081E0915020408040E1F700C000001EC01D
:100C0000359B0DC082E4809302019FE728E381E0D9
:100C1000915020408040E1F700C000000FC01899BB
:100C20000DC082E58093020109C09FEF26E781E0B5
:100C3000915020408040E1F700C00000189BF5CFA4
:100C400080910201823431F0823511F1813409F052
:100C50008FC50FC080910501909106010596909374
:100C600006018093050162E00E94310D109202019D
:100C70007FC580910501909106010597909306012B
:100C80008093050162E00E94310D1092020170C54F
:100C900080911F01909120010196909320018093F3
:100CA0001F018091050190910601909304018093AA
:100CB0000301109202015CC58830910509F081C0E2
:100CC00080910201811106C0349904C0359902C097
:100CD00018994EC580910301909104018F3F9105B1
:100CE0003CF08EEF90E0909304018093030106C0E6
:100CF000029724F41092040110920301349B0DC05A
:100D000081E4809302019FE728E381E09150204035
:100D10008040E1F700C000001EC0359B0DC082E49A
:100D2000809302019FE728E381E0915020408040BA
:100D3000E1F700C000000FC018990DC082E5809354
:100D4000020109C09FEF26E781E0915020408040DA
:100D5000E1F700C00000189BF5CF809102018234BA
:100D600031F0823511F1813409F002C50FC0809154
:100D7000030190910401059690930401809303016F
:100D800062E00E94310D10920201F2C480910301D1
:100D9000909104010597909304018093030162E010
:100DA0000E94310D10920201E3C480911F019091C5
:100DB000200101969093200180931F01109202015F
:100DC000D7C4099709F0D4C480910201811102C0EF
:100DD000189928C010921E0110921D011092200136
:100DE00010921F0110921201109211011092100125
:100DF00010920F0110920A0110920901109208013D
:100E00001092070110920E0110920D0110920C0128
:100E100010920B011092040110920301109206012E
:100E2000109205018091110190911201C0910F0162
:100E3000D0911001C817D90764F01EC061E0CE013F
:100E40000E94310D8FE39CE90197F1F700C000008B
:100E5000219680911101909112018C179D0774F7D2
:100E600012C061E0CE010E94310D8FE39CE9019731
:100E7000F1F700C0000021978091110190911201BB
:100E8000C817D90774F780910D0190910E01C09198
:100E90000B01D0910C01C817D90764F01EC061E0A6
:100EA000CE010E94E80C8FE39CE90197F1F700C0A6
:100EB0000000219680910D0190910E018C179D07E5
:100EC00074F712C061E0CE010E94E80C8FE39CE948
:100ED0000197F1F700C00000219780910D019091DA
:100EE0000E01C817D90774F78091090190910A0182
:100EF000C0910701D0910801C817D90764F01EC03E
:100F000062E0CE010E94E80C8FE39CE90197F1F7C3
:100F100000C0000021968091090190910A018C1770
:100F20009D0774F712C062E0CE010E94E80C8FE3C7
:100F30009CE90197F1F700C0000021978091090119
:100F400090910A01C817D90774F780910501909113
:100F50000601C0910301D0910401C817D9077CF0A4
:100F600024C062E0CE010E94310D9FEF29EF80E0A6
:100F7000915020408040E1F700C000002196809110
:100F80000501909106018C179D075CF715C062E082
:100F9000CE010E94310D9FEF29EF80E0915020405B
:100FA0008040E1F700C000002197809105019091F9
:100FB0000601C817D9075CF7C0911101D091120141
:100FC00080910F01909110018C179D0764F01EC055
:100FD00061E0CE010E94310D8FE39CE90197F1F7AA
:100FE00000C00000219780910F0190911001C81757
:100FF000D90774F712C061E0CE010E94310D8FE372
:101000009CE90197F1F700C00000219680910F0143
:10101000909110018C179D0774F7C0910D01D0912C
:101020000E0180910B0190910C018C179D0764F0CB
:101030001EC061E0CE010E94E80C8FE39CE901979D
:10104000F1F700C00000219780910B0190910C01F5
:10105000C817D90774F712C061E0CE010E94E80CEE
:101060008FE39CE90197F1F700C000002196809181
:101070000B0190910C018C179D0774F7C091090129
:10108000D0910A0180910701909108018C179D076A
:1010900064F01EC062E0CE010E94E80C8FE39CE980
:1010A0000197F1F700C0000021978091070190910E
:1010B0000801C817D90774F712C062E0CE010E9478
:1010C000E80C8FE39CE90197F1F700C0000021963E
:1010D00080910701909108018C179D0774F7C091CA
:1010E0000501D091060180910301909104018C17B4
:1010F0009D077CF024C062E0CE010E94310D9FEF7D
:1011000029EF80E0915020408040E1F700C00000CE
:1011100021978091030190910401C817D9075CF7CA
:1011200027C362E0CE010E94310D9FEF29EF80E0DE
:10113000915020408040E1F700C00000219680914E
:101140000301909104018C179D075CF711C38BB1CB
:1011500080638BB98091190190911A01019721F454
:101160008BB180738BB904C310921A0110921901CC
:10117000FFC28BB180678BB981E090E090931A0138
:101180008093190180910201873631F481E090E06B
:10119000909314018093130180910201813631F400
:1011A00082E090E0909314018093130180910201FA
:1011B000823631F483E090E0909314018093130120
:1011C00080910201833631F484E090E09093140121
:1011D000809313018091130190911401019709F0FC
:1011E000AFC0E09102018E2F90E0FC01F097E23455
:1011F000F10508F0A5C0EC5CFF4F0C94950D61E083
:1012000080E090E00E94310D9BC061E08AE090E0B8
:101210000E94310D95C061E084E190E00E94310DA3
:101220008FC061E08EE190E00E94310D89C061E0E5
:1012300088E290E00E94310D83C061E082E390E09B
:101240000E94310D7DC061E08CE390E00E94310D81
:1012500077C061E086E490E00E94310D71C061E0EA
:1012600080E590E00E94310D6BC061E08AE590E07E
:101270000E94310D65C061E084E690E00E94310D6E
:101280005FC061E08EE690E00E94310D59C061E0E0
:1012900088E790E00E94310D53C061E082E890E061
:1012A0000E94310D4DC061E08CE890E00E94310D4C
:1012B00047C061E086E990E00E94310D41C061E0E5
:1012C00080EA90E00E94310D3BC061E08AEA90E044
:1012D0000E94310D35C061E084EB90E00E94310D39
:1012E0002FC061E08EEB90E00E94310D29C061E0DB
:1012F00088EC90E00E94310D23C061E082ED90E027
:101300000E94310D1DC061E08CED90E00E94310D16
:1013100017C061E086EE90E00E94310D11C061E0DF
:1013200080EF90E00E94310D0BC061E08AEF90E009
:101330000E94310D05C061E08FEF90E00E94310DF9
:101340008091130190911401029709F0AFC0E091D0
:1013500002018E2F90E0FC01F097E234F10508F0D5
:10136000A5C0EA58FF4F0C94950D62E080E090E034
:101370000E94E80C9BC062E08AE090E00E94E80CCA
:1013800095C062E084E190E00E94E80C8FC062E0CA
:101390008EE190E00E94E80C89C062E088E290E073
:1013A0000E94E80C83C062E082E390E00E94E80CB7
:1013B0007DC062E08CE390E00E94E80C77C062E0C0
:1013C00086E490E00E94E80C71C062E080E590E065
:1013D0000E94E80C6BC062E08AE590E00E94E80C95
:1013E00065C062E084E690E00E94E80C5FC062E0C5
:1013F0008EE690E00E94E80C59C062E088E790E039
:101400000E94E80C53C062E082E890E00E94E80C81
:101410004DC062E08CE890E00E94E80C47C062E0BA
:1014200086E990E00E94E80C41C062E080EA90E02A
:101430000E94E80C3BC062E08AEA90E00E94E80C5F
:1014400035C062E084EB90E00E94E80C2FC062E0BF
:101450008EEB90E00E94E80C29C062E088EC90E0FE
:101460000E94E80C23C062E082ED90E00E94E80C4C
:101470001DC062E08CED90E00E94E80C17C062E0B5
:1014800086EE90E00E94E80C11C062E080EF90E0F0
:101490000E94E80C0BC062E08AEF90E00E94E80C2A
:1014A00005C062E08FEF90E00E94E80C809113018C
:1014B00090911401039709F0A3C0E09102018E2FCF
:1014C00090E0FC01F097E633F10508F099C0E8548C
:1014D000FF4F0C94950D61E080E090E00E94E80CD5
:1014E0008FC061E08AE090E00E94E80C89C061E072
:1014F00084E190E00E94E80C83C061E08EE190E01E
:101500000E94E80C7DC061E088E290E00E94E80C57
:1015100077C061E082E390E00E94E80C71C061E076
:101520008CE390E00E94E80C6BC061E086E490E000
:101530000E94E80C65C061E080E590E00E94E80C44
:101540005FC061E08AE590E00E94E80C59C061E06C
:1015500084E690E00E94E80C53C061E08EE690E0E3
:101560000E94E80C4DC061E088E790E00E94E80C22
:1015700047C061E082E890E00E94E80C41C061E071
:101580008CE890E00E94E80C3BC061E086E990E0C6
:101590000E94E80C35C061E080EA90E00E94E80C0F
:1015A0002FC061E08AEA90E00E94E80C29C061E067
:1015B00084EB90E00E94E80C23C061E08EEB90E0A9
:1015C0000E94E80C1DC061E088EC90E00E94E80CED
:1015D00017C061E082ED90E00E94E80C11C061E06C
:1015E0008CED90E00E94E80C0BC061E086EE90E08C
:1015F0000E94E80C05C061E080EF90E00E94E80CDA
:101600008091130190911401049709F0AFC0E0910B
:1016100002018E2F90E0FC01F097E234F10508F012
:10162000A5C0E251FF4F0C94950D62E080E090E080
:101630000E94310D9BC062E08AE090E00E94310D73
:1016400095C062E084E190E00E94310D8FC062E0BD
:101650008EE190E00E94310D89C062E088E290E066
:101660000E94310D83C062E082E390E00E94310D60
:101670007DC062E08CE390E00E94310D77C062E0B3
:1016800086E490E00E94310D71C062E080E590E058
:101690000E94310D6BC062E08AE590E00E94310D3E
:1016A00065C062E084E690E00E94310D5FC062E0B8
:1016B0008EE690E00E94310D59C062E088E790E02C
:1016C0000E94310D53C062E082E890E00E94310D2B
:1016D0004DC062E08CE890E00E94310D47C062E0AE
:1016E00086E990E00E94310D41C062E080EA90E01E
:1016F0000E94310D3BC062E08AEA90E00E94310D09
:1017000035C062E084EB90E00E94310D2FC062E0B2
:101710008EEB90E00E94310D29C062E088EC90E0F1
:101720000E94310D23C062E082ED90E00E94310DF5
:101730001DC062E08CED90E00E94310D17C062E0A8
:1017400086EE90E00E94310D11C062E080EF90E0E3
:101750000E94310D0BC062E08AEF90E00E94310DD3
:1017600005C062E08FEF90E00E94310D10920201FF
:1017700080911D0190911E01892B29F4EAE7F0E088
:101780008081806480838FE59AEE0197F1F700C035
:1017900000000C94C3011F920F920FB60F921124F8
:1017A0002F933F934F935F936F937F938F939F9369
:1017B000AF93BF93CF93DF93EF93FF9380911D017E
:1017C00090911E01892B09F07CC08091210190919C
:1017D00022018130910521F11CF4892B41F071C067
:1017E00082309105C9F1039709F452C06AC0ECE751
:1017F000F0E08081887F808381E090E090932201F7
:1018000080932101C9E7D0E0888162E090E00E94E6
:10181000E80C888190E090930A018093090151C0FF
:10182000ECE7F0E08081887F808380818160808325
:1018300082E090E09093220180932101C9E7D0E0FB
:10184000888161E090E00E94E80C888190E09093AC
:101850000E0180930D0135C0ECE7F0E08081887FB8
:10186000808380818260808383E090E09093220176
:1018700080932101C9E7D0E0888161E090E00E9477
:10188000310D888190E0909312018093110119C06D
:10189000ECE7F0E08081887F8083808183608083B3
:1018A0001092220110922101C9E7D0E0888162E004
:1018B00090E00E94310D888190E090930601809322
:1018C0000501EAE7F0E0808180618083FF91EF917C
:1018D000DF91CF91BF91AF919F918F917F916F9148
:1018E0005F914F913F912F910F900FBE0F901F90DE
:1018F00018951F920F920FB60F9211248F9380911B
:10190000C6008A3011F0809302018091C00085FFEB
:10191000FCCF8F910F900FBE0F901F9018958130C4
:1019200019F0823079F00895613031F4E0E8F0E0A8
:101930008081806C80830895E0E8F0E08081806899
:1019400080830895613031F4E0E8F0E080818063C5
:1019500080830895E0E8F0E08081806280830895CC
:1019600010928000109281008830910521F081153D
:10197000944039F00BC0E1E8F0E080818260808320
:1019800005C0E1E8F0E0808185608083E0E8F0E078
:10199000808182608083E1E8F0E0808188618083DB
:1019A00081E090E0909301018093000108952091DF
:1019B0000001309101012130310529F49093870015
:1019C00080938600089510920101109200010895FD
:1019D000613019F06230B1F0089590932601809340
:1019E000250182959295907F9827807F982788512E
:1019F0009C4F9093240180932301909389008093BE
:101A000088000895909326018093250182959295F0
:101A1000907F9827807F982788519C4F909324012E
:101A20008093230190938B0080938A000895E0EBCC
:101A3000F0E01082A1EBB0E01C928081806880838E
:101A400080818062808380818B6080838C91877F9E
:101A50008C938C9187608C9387E08093B30018BC43
:101A60000895613019F06230C9F0089590932A0109
:101A70008093290145E1489F9001499F300D112431
:101A8000C9016FEF70E00E94810D695F7F4F709315
:101A90002801609327016093B300089590932A0171
:101AA000809329014FE1489F9001499F300D1124F7
:101AB000C9016FEF70E00E94810D695F7F4F7093E5
:101AC0002801609327016093B40008958AB18E7F46
:101AD0008AB98AB182608AB91092C000E1ECF0E064
:101AE0001082808188698083E2ECF0E0108280813E
:101AF0008660808387E690E09093C5008093C40061
:101B0000089597FB072E16F4009407D077FD09D0AF
:101B10000E949B0D07FC05D03EF4909581959F4F48
:101B20000895709561957F4F0895EE0FFF1F059002
:101B3000F491E02D0994AA1BBB1B51E107C0AA1F19
:101B4000BB1FA617B70710F0A61BB70B881F991F5E
:101B50005A95A9F780959095BC01CD010895F89408
:021B6000FFCFB5
:021B6200010080
:00000001FF
