:100000000C9434000C9451000C9451000C94510049
:100010000C9451000C9451000C9451000C9451001C
:100020000C9451000C9451000C9451000C9451000C
:100030000C9451000C9451000C9451000C945100FC
:100040000C9451000C9451000C9411060C94510026
:100050000C9451000C9463050C9451000C945100C5
:100060000C9451000C94510011241FBECFEFD8E026
:10007000DEBFCDBF11E0A0E0B1E0E6EFFEE002C0E0
:1000800005900D92A230B107D9F721E0A2E0B1E0CE
:1000900001C01D92A732B207E1F70E949E000C94A6
:1000A00079070C940000ECE7F0E08081887F808382
:1000B000AEE7B0E08C9181608C938C9182608C93E0
:1000C0008C9184608C938C9188608C938081806209
:1000D000808380818064808380818F778083EAE75A
:1000E000F0E0808188608083808187608083808168
:1000F000806880830895F89484B18E6084B917B8BD
:100100008AB188678AB988E090E00E94800660E042
:1001100082E00E945F0660E081E00E945F068FE25D
:1001200095E70E94A7060E9453000E94E7060E94DE
:1001300036078BB180618BB9789408950E947B005B
:1001400080910201813559F4109218011092170123
:1001500010921A01109219011092020123C080918D
:100160000201873569F481E090E090931801809353
:10017000170110921A01109219011092020112C077
:1001800080910201853471F482E090E0909318012F
:100190008093170181E090E090931A0180931901F8
:1001A0001092020180911701909118018130910500
:1001B00009F45CC48230910509F46AC4892B09F002
:1001C00070C48BB11BB88BB180628BB98BB18BB90A
:1001D000109216011092150180911B0190911C0143
:1001E000009731F4019690931C0180931B0159C430
:1001F0008130910509F05DC020910201222309F4AC
:1002000050C420911101309112012F3F31053CF073
:100210002EEF30E0309312012093110107C02230FD
:10022000310524F410921201109211012091020163
:100230002234D1F0223569F1213409F032C481E051
:1002400090E090931A01809319018091110190918F
:1002500012010A96909312018093110161E00E94AD
:100260000107109202011DC481E090E090931A01F1
:100270008093190180911101909112010A97909336
:1002800012018093110161E00E94010710920201A6
:1002900008C4209111013091120130931001209374
:1002A0000F01019690931C0180931B011092020193
:1002B000F8C38230910509F049C020910201222340
:1002C00009F4EFC320910F01309110012F3F310548
:1002D0003CF02EEF30E03093100120930F0107C067
:1002E0002230310524F41092100110920F01209158
:1002F00002012234A1F0223509F1213409F0D1C3E1
:1003000080910F01909110010A96909310018093B3
:100310000F0161E00E94010710920201C2C38091A7
:100320000F01909110010A979093100180930F0193
:1003300061E00E94010710920201B3C301969093FD
:100340001C0180931B0110920201ABC38330910505
:1003500009F052C020910201222309F4A2C3209186
:100360000D0130910E012F3F31053CF02EEF30E0B2
:1003700030930E0120930D0107C02230310524F483
:1003800010920E0110920D0120910201223431F0E1
:10039000223511F1213409F084C30FC080910D0181
:1003A00090910E010A9690930E0180930D0161E0E9
:1003B0000E94B8061092020174C380910D019091C1
:1003C0000E010A9790930E0180930D0161E00E9447
:1003D000B8061092020165C320910D0130910E0103
:1003E00030930C0120930B01019690931C01809394
:1003F0001B011092020155C38430910509F04AC0D7
:1004000020910201222309F44CC320910B01309169
:100410000C012F3F31053CF02EEF30E030930C0102
:1004200020930B0107C02230310524F410920C01F7
:1004300010920B0120910201223431F0223511F18A
:10044000213409F02EC30FC080910B0190910C0153
:100450000A9690930C0180930B0161E00E94B8060C
:10046000109202011EC380910B0190910C010A971A
:1004700090930C0180930B0161E00E94B8061092EA
:1004800002010FC3019690931C0180931B011092EF
:10049000020107C38530910509F052C02091020185
:1004A000222309F4FEC22091090130910A012F3F55
:1004B00031053CF02EEF30E030930A012093090122
:1004C00007C02230310524F410920A01109209016C
:1004D00020910201223431F0223511F1213409F04A
:1004E000E0C20FC08091090190910A010A96909391
:1004F0000A018093090162E00E94B806109202018D
:10050000D0C28091090190910A010A9790930A0143
:100510008093090162E00E94B80610920201C1C2F4
:10052000019690931C0180931B0180910901909189
:100530000A01909308018093070110920201B1C251
:100540008630910509F04AC020910201222309F466
:10055000A8C220910701309108012F3F31053CF0DE
:100560002EEF30E0309308012093070107C02230BE
:10057000310524F410920801109207012091020124
:10058000223431F0223511F1213409F08AC20FC032
:1005900080910701909108010A9690930801809339
:1005A000070162E00E94B806109202017AC28091AF
:1005B0000701909108010A97909308018093070121
:1005C00062E00E94B806109202016BC201969093FD
:1005D0001C0180931B011092020163C287309105B8
:1005E00009F052C020910201222309F45AC220913D
:1005F0000501309106012F3F31053CF02EEF30E030
:10060000309306012093050107C02230310524F400
:10061000109206011092050120910201223431F05E
:10062000223511F1213409F03CC20FC0809105013F
:10063000909106010596909306018093050162E072
:100640000E940107109202012CC280910501909135
:1006500006010597909306018093050162E00E94D0
:100660000107109202011DC2019690931C01809314
:100670001B018091050190910601909304018093E4
:100680000301109202010DC28830910509F04AC0A1
:1006900020910201222309F404C220910301309128
:1006A00004012F3F31053CF02EEF30E03093040180
:1006B0002093030107C02230310524F41092040175
:1006C0001092030120910201223431F0223511F100
:1006D000213409F0E6C10FC080910301909104011B
:1006E0000596909304018093030162E00E94010744
:1006F00010920201D6C180910301909104010597E7
:10070000909304018093030162E00E94010710921C
:100710000201C7C1019690931C0180931B011092A6
:100720000201BFC1099709F0BCC180910201882371
:1007300041F010921A011092190110921C011092AE
:100740001B018091110190911201C0910F01D09174
:100750001001C817D90764F01EC061E0CE010E94E5
:1007600001078FE39CE90197F1F700C00000219693
:1007700080911101909112018C179D0774F712C09E
:1007800061E0CE010E9401078FE39CE90197F1F738
:1007900000C0000021978091110190911201C817AB
:1007A000D90774F780910D0190910E01C0910B0152
:1007B000D0910C01C817D90764F01EC061E0CE01CA
:1007C0000E94B8068FE39CE90197F1F700C0000092
:1007D000219680910D0190910E018C179D0774F761
:1007E00012C061E0CE010E94B8068FE39CE9019738
:1007F000F1F700C00000219780910D0190910E014A
:10080000C817D90774F78091090190910A01C09126
:100810000701D0910801C817D90764F01EC062E033
:10082000CE010E94B8068FE39CE90197F1F700C062
:10083000000021968091090190910A018C179D0773
:1008400074F712C062E0CE010E94B8068FE39CE903
:100850000197F1F700C00000219780910901909164
:100860000A01C817D90774F7809105019091060114
:10087000C0910301D0910401C817D9077CF024C0AE
:1008800062E0CE010E9401079FEF29EF80E09150C6
:1008900020408040E1F700C00000219680910501D2
:1008A000909106018C179D075CF715C062E0CE01A0
:1008B0000E9401079FEF29EF80E091502040804087
:1008C000E1F700C000002197809105019091060199
:1008D000C817D9075CF7C0911101D091120180911E
:1008E0000F01909110018C179D0764F01EC061E00C
:1008F000CE010E9401078FE39CE90197F1F700C048
:100900000000219780910F0190911001C817D9071D
:1009100074F712C061E0CE010E9401078FE39CE9E9
:100920000197F1F700C00000219680910F0190918E
:1009300010018C179D0774F7C0910D01D0910E0125
:1009400080910B0190910C018C179D0764F01EC0E3
:1009500061E0CE010E94B8068FE39CE90197F1F7B0
:1009600000C00000219780910B0190910C01C817E5
:10097000D90774F712C061E0CE010E94B8068FE378
:100980009CE90197F1F700C00000219680910B01CE
:1009900090910C018C179D0774F7C0910901D091BB
:1009A0000A0180910701909108018C179D0764F05E
:1009B0001EC062E0CE010E94B8068FE39CE9019759
:1009C000F1F700C000002197809107019091080184
:1009D000C817D90774F712C062E0CE010E94B806AA
:1009E0008FE39CE90197F1F700C000002196809108
:1009F0000701909108018C179D0774F7C0910501BC
:100A0000D091060180910301909104018C179D07FC
:100A10007CF024C062E0CE010E9401079FEF29EF25
:100A200080E0915020408040E1F700C00000219715
:100A30008091030190910401C817D9075CF731C078
:100A400062E0CE010E9401079FEF29EF80E0915004
:100A500020408040E1F700C0000021968091030112
:100A6000909104018C179D075CF71BC08BB18063CC
:100A70008BB98091150190911601019721F48BB1EA
:100A800080738BB90EC0109216011092150109C027
:100A90008BB180678BB981E090E0909316018093D1
:100AA00015018091190190911A01892B29F4EAE727
:100AB000F0E08081806480838FE59AEE0197F1F702
:100AC00000C000003DCB1F920F920FB60F92112471
:100AD0002F933F934F935F936F937F938F939F9346
:100AE000AF93BF93CF93DF93EF93FF93809119015F
:100AF00090911A01892B09F07CC080911D01909181
:100B00001E018130910521F11CF4892B41F071C047
:100B100082309105C9F1039709F452C06AC0ECE72D
:100B2000F0E08081887F808381E090E090931E01D7
:100B300080931D01C9E7D0E0888162E090E00E94C7
:100B4000B806888190E090930A018093090151C012
:100B5000ECE7F0E08081887F808380818160808302
:100B600082E090E090931E0180931D01C9E7D0E0E0
:100B7000888161E090E00E94B806888190E09093BF
:100B80000E0180930D0135C0ECE7F0E08081887F95
:100B9000808380818260808383E090E090931E0157
:100BA00080931D01C9E7D0E0888161E090E00E9458
:100BB0000107888190E0909312018093110119C080
:100BC000ECE7F0E08081887F808380818360808390
:100BD00010921E0110921D01C9E7D0E0888162E0E9
:100BE00090E00E940107888190E090930601809335
:100BF0000501EAE7F0E0808180618083FF91EF9159
:100C0000DF91CF91BF91AF919F918F917F916F9124
:100C10005F914F913F912F910F900FBE0F901F90BA
:100C200018951F920F920FB60F9211242F938F9346
:100C30009F93AF93BF93EF93FF938091C6008A3049
:100C400071F1809302018091170190911801029730
:100C500031F5809113019091140120910201FC0162
:100C6000EE5FFE4F2083029789F4109214011092D8
:100C70001301A2E0B1E08C91E6ECF0E080831196E4
:100C80008C911197808312968C91808380911301AF
:100C90009091140101969093140180931301809117
:100CA000C00085FFFCCFFF91EF91BF91AF919F9165
:100CB0008F912F910F900FBE0F901F90189581303C
:100CC00019F0823079F00895613031F4E0E8F0E015
:100CD0008081806C80830895E0E8F0E08081806806
:100CE00080830895613031F4E0E8F0E08081806332
:100CF00080830895E0E8F0E0808180628083089539
:100D000010928000109281008830910521F08115A9
:100D1000944039F00BC0E1E8F0E08081826080838C
:100D200005C0E1E8F0E0808185608083E0E8F0E0E4
:100D3000808182608083E1E8F0E080818861808347
:100D400081E090E09093010180930001089520914B
:100D50000001309101012130310529F49093870081
:100D60008093860008951092010110920001089569
:100D7000613019F06230B1F00895909322018093B0
:100D8000210182959295907F9827807F982788519E
:100D90009C4F9093200180931F0190938900809332
:100DA0008800089590932201809321018295929565
:100DB000907F9827807F982788519C4F909320019F
:100DC00080931F0190938B0080938A000895E0EB3D
:100DD000F0E01082A1EBB0E01C92808180688083FB
:100DE00080818062808380818B6080838C91877F0B
:100DF0008C938C9187608C9387E08093B30018BCB0
:100E00000895613019F06230C9F008959093260179
:100E10008093250145E1489F9001499F300D1124A1
:100E2000C9016FEF70E00E945107695F7F4F7093B7
:100E30002401609323016093B300089590932601E9
:100E4000809325014FE1489F9001499F300D112467
:100E5000C9016FEF70E00E945107695F7F4F709387
:100E60002401609323016093B40008958AB18E7FBA
:100E70008AB98AB182608AB91092C000E1ECF0E0D0
:100E80001082808188698083E2ECF0E010828081AA
:100E90008660808387E690E09093C5008093C400CD
:100EA000089597FB072E16F4009407D077FD09D01C
:100EB0000E94650707FC05D03EF4909581959F4FF1
:100EC0000895709561957F4F0895AA1BBB1B51E152
:100ED00007C0AA1FBB1FA617B70710F0A61BB70BAA
:100EE000881F991F5A95A9F780959095BC01CD014F
:060EF0000895F894FFCF05
:020EF6000100F9
:00000001FF
