S00D00004272617A6F2E7372656319
S11300000C9434000C9451000C9451000C94510045
S11300100C9451000C9451000C9451000C94510018
S11300200C9451000C9451000C9451000C94510008
S11300300C9451000C9451000C9451000C945100F8
S11300400C9451000C9451000C9451000C945100E8
S11300500C9451000C94A7000C9451000C94510082
S11300600C9451000C94510011241FBECFEFD8E022
S1130070DEBFCDBF11E0A0E0B1E0ECE5F4E002C0EA
S113008005900D92A230B107D9F721E0A2E0B1E0CA
S113009001C01D92AC30B207E1F70E9499000C94A4
S11300A02C020C940000ECE7F0E08081887F8083D0
S11300B0AEE7B0E08C9181608C938C9182608C93DC
S11300C08C9184608C938C9188608C938081806205
S11300D0808380818064808380818F778083EAE756
S11300E0F0E0808188608083808187608083808164
S11300F0806880830895F89484B18E6084B917B8B9
S11301008AB188608AB988E090E00E944E0160E07C
S113011082E00E942D0160E081E00E942D018FE2C7
S113012095E70E9475010E9453000E94B5017894DE
S113013008950E947B00EAE7F0E080818064808378
S11301408FE295E70197F1F700C00000F4CF1F920A
S11301500F920FB60F9211242F933F934F935F93F7
S11301606F937F938F939F93AF93BF93EF93FF937B
S1130170809102019091030181309105E1F01CF41A
S1130180892B39F054C08230910551F10397E9F17C
S11301904EC0ECE7F0E08081887F808381E090E0CE
S11301A090930301809302018091790062E090E0D2
S11301B00E9486013CC0ECE7F0E08081887F808368
S11301C080818160808382E090E09093030180933A
S11301D002018091790061E090E00E94860127C0CD
S11301E0ECE7F0E08081887F808380818260808377
S11301F083E090E090930301809302018091790061
S113020061E090E00E94CF0112C0ECE7F0E0808151
S1130210887F8083808183608083109203011092A1
S113022002018091790062E090E00E94CF01EAE748
S1130230F0E0808180618083FF91EF91BF91AF9165
S11302409F918F917F916F915F914F913F912F91EA
S11302500F900FBE0F901F901895813019F08230C7
S113026079F00895613031F4E0E8F0E08081806C49
S113027080830895E0E8F0E08081806880830895B9
S1130280613031F4E0E8F0E0808180638083089598
S1130290E0E8F0E08081806280830895109280001D
S11302A0109281008830910521F08115944039F035
S11302B00BC0E1E8F0E080818260808305C0E1E862
S11302C0F0E0808185608083E0E8F0E080818260F6
S11302D08083E1E8F0E080818861808381E090E0C0
S11302E090930101809300010895209100013091C1
S11302F001012130310529F4909387008093860011
S1130300089510920101109200010895613019F0CE
S11303106230B1F0089590930701809306018295AD
S11303209295907F9827807F982788519C4F90932F
S113033005018093040190938900809388000895B7
S1130340909307018093060182959295907F982758
S1130350807F982788519C4F9093050180930401D6
S113036090938B0080938A000895E0EBF0E0108274
S1130370A1EBB0E01C9280818068808380818062E0
S1130380808380818B6080838C91877F8C938C9118
S113039087608C9387E08093B30018BC0895613024
S11303A019F06230C9F0089590930B0180930A010B
S11303B045E1489F9001499F300D1124C9016FEF19
S11303C070E00E940402695F7F4F7093090160939B
S11303D008016093B300089590930B0180930A0180
S11303E04FE1489F9001499F300D1124C9016FEFDF
S11303F070E00E940402695F7F4F7093090160936B
S113040008016093B400089597FB072E16F4009436
S113041007D077FD09D00E94180207FC05D03EF4EE
S1130420909581959F4F0895709561957F4F08959C
S1130430AA1BBB1B51E107C0AA1FBB1FA617B70706
S113044010F0A61BB70B881F991F5A95A9F7809522
S10F04509095BC01CD010895F894FFCFF5
S105045C010099
S9030000FC
