S00D00004272617A6F2E7372656319
S11300000C9430010C944D010C944D010C944D0151
S11300100C944D010C944D010C944D010C944D0124
S11300200C944D010C944D010C944D010C944D0114
S11300300C944D010C944D010C944D010C944D0104
S11300400C944D010C944D010C94F80D0C944D013D
S11300500C944D010C944A0D0C944D010C944D01DB
S11300600C944D010C944D017E0A840A8A0A900A6C
S1130070960A9C0AA20AA80AAE0AB40A1F0B1F0B0E
S11300801F0B1F0B1F0B1F0B1F0BBA0AC00AC60A3C
S1130090CC0A1F0BD80ADE0AE40AEA0AF00AF60AB6
S11300A0FC0A020B080B0E0B140B1F0B1F0B1F0B70
S11300B01F0B1F0B1F0B1F0B1F0B1F0B1F0B1F0BEC
S11300C01F0B1F0B1F0B1F0B1F0B1F0B1F0B1F0BDC
S11300D01F0BD20A1F0B1F0B1F0B1F0B1F0B1F0B1A
S11300E01F0B1F0B1F0B1F0B1F0B1A0B340B3A0B91
S11300F0400B460B4C0B520B580B5E0B640B6A0BFC
S1130100D50BD50BD50BD50BD50BD50BD50B700B50
S1130110760B7C0B820BD50B8E0B940B9A0BA00BDE
S1130120A60BAC0BB20BB80BBE0BC40BCA0BD50B96
S1130130D50BD50BD50BD50BD50BD50BD50BD50BBB
S1130140D50BD50BD50BD50BD50BD50BD50BD50BAB
S1130150D50BD50BD50B880BD50BD50BD50BD50BE8
S1130160D50BD50BD50BD50BD50BD50BD50BD00B90
S1130170EA0BF00BF60BFC0B020C080C0E0C140C27
S11301801A0C200C7F0C7F0C7F0C7F0C7F0C7F0CD7
S11301907F0C260C2C0C320C380C7F0C440C4A0CB3
S11301A0500C560C5C0C620C680C6E0C740C7A0CC3
S11301B07F0C7F0C7F0C7F0C7F0C7F0C7F0C7F0CE3
S11301C07F0C7F0C7F0C7F0C7F0C7F0C7F0C7F0CD3
S11301D07F0C7F0C7F0C7F0C7F0C3E0C940C9A0CD4
S11301E0A00CA60CAC0CB20CB80CBE0CC40CCA0C03
S11301F0350D350D350D350D350D350D350DD00C51
S1130200D60CDC0CE20C350DEE0CF40CFA0C000DE3
S1130210060D0C0D120D180D1E0D240D2A0D350D95
S1130220350D350D350D350D350D350D350D350DBA
S1130230350D350D350D350D350D350D350D350DAA
S1130240350D350D350DE80C350D350D350D350DE8
S1130250350D350D350D350D350D350D350D300D8F
S113026011241FBECFEFD8E0DEBFCDBF11E0A0E068
S1130270B1E0E0E6FEE102C005900D92A230B107C4
S1130280D9F721E0A2E0B1E001C01D92AD32B2077E
S1130290E1F70E94B7010C942E0F0C940000ECE7D8
S11302A0F0E08081887F8083AEE7B0E08C9181604C
S11302B08C938C9182608C938C9184608C938C91C0
S11302C088608C9380818062808380818064808355
S11302D080818F778083EAE7F0E080818860808383
S11302E08081876080838081806880830895F99904
S11302F0FECF92BD81BD60BD8FB384608FBB8FB3D1
S113030082608FBB0895F999FECF92BD81BD8FB3F2
S113031081608FBB80B590E00895F89484B18E60BD
S113032084B917B88AB188678AB984B18E7084B9E0
S113033081E185B988E78AB988E090E00E942F0EB0
S113034060E082E00E940E0E60E081E00E940E0EEA
S11303508FE295E70E94560E0E944F010E94960E6E
S11303600E94E50E8BB180618BB9789408950E9448
S11303708D0180910201813579F410921E01109251
S11303801D011092200110921F0110921A01109267
S113039019011092020131C080910201873589F45C
S11303A081E090E090931E0180931D011092200142
S11303B010921F0190931A01809319011092020167
S11303C01CC0809102018534C1F482E090E09093D6
S11303D01E0180931D0121E030E030932001209321
S11303E01F0190931A0180931901E6ECF0E081E477
S11303F080838AE08083109202011C995CC02FEFF5
S113040086E791E0215080409040E1F700C0000071
S11304108091190190911A01019690931A01809389
S113042019018130910589F481E090E090931E01D7
S113043080931D011092200110921F01E6ECF0E060
S11304408AE580838AE0808334C08230910599F400
S113045082E090E090931E0180931D0181E090E082
S11304609093200180931F01E6ECF0E081E4808307
S11304708AE080831EC00397E4F010921A01109260
S1130480190110921E0110921D0110922001109268
S11304901F01E6ECF0E082E480838AE0808309C0F7
S11304A02FEF86E791E0215080409040E1F700C0B3
S11304B000001C9BF5CF80911D0190911E0181309D
S11304C0910509F44AC68230910509F4D1C7892BF4
S11304D011F00C94370D8BB11BB88BB180628BB9C2
S11304E08BB18BB910921C0110921B0180912101D8
S11304F090912201009739F4019690932201809300
S113050021010C94370D8130910509F09EC0809132
S1130510020181110CC034990AC0359908C0809138
S1130520170190911801019711F00C94370D81E097
S113053090E090931801809317018091130190919A
S113054014018F3F91053CF08EEF90E090931401DD
S11305508093130106C0029724F4109214011092A0
S11305601301349B0AC08FE59AEE0197F1F700C09E
S1130570000081E4809302011BC0359B0AC08FE513
S11305809AEE0197F1F700C0000082E48093020123
S11305900FC018990DC082E58093020109C09FEF36
S11305A026E781E0915020408040E1F700C0000040
S11305B0189BF5CF809102018234E1F0823581F1FC
S11305C0813411F00C94370D81E090E09093200178
S11305D080931F0180911301909114010A969093C6
S11305E014018093130161E00E94B00E1092020185
S11305F00C94370D81E090E09093200180931F01CB
S113060080911301909114010A979093140180939F
S1130610130161E00E94B00E109202010C94370D98
S11306208091130190911401909312018093110110
S1130630809121019091220101969093220180934F
S11306402101109202010C94370D8230910509F0BA
S113065084C0109218011092170180910201811137
S113066008C0349906C0359904C0189B02C00C9484
S1130670370D80911101909112018F3F91053CF04B
S11306808EEF90E0909312018093110106C00297BF
S113069024F41092120110921101349B0AC081E4D7
S11306A0809302018FE59AEE0197F1F700C00000F4
S11306B01BC0359B0AC082E4809302018FE59AEE49
S11306C00197F1F700C000000FC018990DC082E532
S11306D08093020109C09FEF26E781E091502040FA
S11306E08040E1F700C00000189BF5CF8091020123
S11306F08234B1F0823521F1813411F00C94370D3C
S113070080911101909112010A96909312018093A5
S1130710110161E00E94B00E109202010C94370D99
S113072080911101909112010A9790931201809384
S1130730110161E00E94B00E109202010C94370D79
S1130740809121019091220101969093220180933E
S11307502101109202010C94370D8330910509F0A8
S11307608FC080910201811108C0349906C0359967
S113077004C0189B02C00C94370D80910F01909116
S113078010018F3F91053CF08EEF90E090931001A3
S113079080930F0106C0029724F410921001109266
S11307A00F01349B0DC081E4809302019FE728E38D
S11307B081E0915020408040E1F700C000001EC05D
S11307C0359B0DC082E4809302019FE728E381E01A
S11307D0915020408040E1F700C000000FC01899FC
S11307E00DC082E58093020109C09FEF26E781E0F6
S11307F0915020408040E1F700C00000189BF5CFE5
S113080080910201823439F0823529F1813411F06A
S11308100C94370D10C080910F01909110010A962D
S11308209093100180930F0161E00E94670E109273
S113083002010C94370D80910F01909110010A97D9
S11308409093100180930F0161E00E94670E109253
S113085002010C94370D80910F0190911001909337
S11308600E0180930D018091210190912201019646
S11308709093220180932101109202010C94370D70
S11308808430910509F087C080910201811108C06C
S1130890349906C0359904C0189B02C00C94370DD6
S11308A080910D0190910E018F3F91053CF08EEFE8
S11308B090E090930E0180930D0106C0029724F4FA
S11308C010920E0110920D01349B0DC081E48093AF
S11308D002019FE728E381E0915020408040E1F746
S11308E000C000001EC0359B0DC082E4809302014D
S11308F09FE728E381E0915020408040E1F700C069
S113090000000FC018990DC082E58093020109C050
S11309109FEF26E781E0915020408040E1F700C03E
S11309200000189BF5CF80910201823439F08235A2
S113093029F1813411F00C94370D10C080910D0110
S113094090910E010A9690930E0180930D0161E03F
S11309500E94670E109202010C94370D80910D01D4
S113096090910E010A9790930E0180930D0161E01E
S11309700E94670E109202010C94370D80912101A0
S1130980909122010196909322018093210110926B
S113099002010C94370D8530910509F087C08091D0
S11309A00201811108C0349906C0359904C0189B0E
S11309B002C00C94370D80910B0190910C018F3F74
S11309C091053CF08EEF90E090930C0180930B0125
S11309D006C0029724F410920C0110920B01349B70
S11309E00AC081E4809302018FE59AEE0197F1F742
S11309F000C000001BC0359B0AC082E48093020142
S1130A008FE59AEE0197F1F700C000000FC0189926
S1130A100DC082E58093020109C09FEF26E781E0C3
S1130A20915020408040E1F700C00000189BF5CFB2
S1130A3080910201823439F0823521F1813411F040
S1130A400C94370D10C080910B0190910C010A9603
S1130A5090930C0180930B0162E00E94670E109248
S1130A6002010C94370D80910B0190910C010A97AF
S1130A7090930C0180930B0162E00E94670E109228
S1130A800201F5C780912101909122010196909372
S1130A9022018093210180910B0190910C0190938C
S1130AA00A018093090110920201E1C78630910581
S1130AB009F07BC080910201811106C0349904C001
S1130AC0359902C01899D3C78091090190910A0100
S1130AD08F3F91053CF08EEF90E090930A01809354
S1130AE0090106C0029724F410920A011092090128
S1130AF0349B0AC081E4809302018FE59AEE01974A
S1130B00F1F700C000001BC0359B0AC082E480934B
S1130B1002018FE59AEE0197F1F700C000000FC0C3
S1130B2018990DC082E58093020109C09FEF26E762
S1130B3081E0915020408040E1F700C00000189B04
S1130B40F5CF80910201823431F0823511F1813484
S1130B5009F08DC70FC08091090190910A010A968E
S1130B6090930A018093090162E00E94670E10923B
S1130B7002017DC78091090190910A010A9790931F
S1130B800A018093090162E00E94670E109202013B
S1130B906EC78091210190912201019690932201C8
S1130BA0809321011092020162C78730910509F0F8
S1130BB089C080910201811106C0349904C035991D
S1130BC002C0189954C780910701909108018F3F82
S1130BD091053CF08EEF90E090930801809307011B
S1130BE006C0029724F41092080110920701349B66
S1130BF00DC081E4809302019FE728E381E09150D6
S1130C0020408040E1F700C000001EC0359B0DC0AD
S1130C1082E4809302019FE728E381E09150204021
S1130C208040E1F700C000000FC018990DC082E5B4
S1130C308093020109C09FEF26E781E09150204094
S1130C408040E1F700C00000189BF5CF80910201BD
S1130C50823431F0823511F1813409F008C70FC0B4
S1130C608091070190910801059690930801809363
S1130C70070162E00E94B00E10920201F8C6809152
S1130C80070190910801059790930801809307014B
S1130C9062E00E94B00E10920201E9C68091210127
S1130CA090912201019690932201809321018091D9
S1130CB00701909108019093060180930501109219
S1130CC00201D5C68830910509F081C080910201E6
S1130CD0811106C0349904C0359902C01899C7C659
S1130CE080910501909106018F3F91053CF08EEFB4
S1130CF090E0909306018093050106C0029724F4C6
S1130D001092060110920501349B0DC081E480937A
S1130D1002019FE728E381E0915020408040E1F701
S1130D2000C000001EC0359B0DC082E48093020108
S1130D309FE728E381E0915020408040E1F700C024
S1130D4000000FC018990DC082E58093020109C00C
S1130D509FEF26E781E0915020408040E1F700C0FA
S1130D600000189BF5CF80910201823431F0823566
S1130D7011F1813409F07BC60FC080910501909177
S1130D8006010596909306018093050162E00E9496
S1130D90B00E109202016BC680910501909106017C
S1130DA00597909306018093050162E00E94B00EBE
S1130DB0109202015CC6809121019091220101965A
S1130DC090932201809321011092020150C6099749
S1130DD009F04DC680910201811102C0189928C002
S1130DE01092200110921F011092220110922101F1
S1130DF01092140110921301109212011092110119
S1130E0010920C0110920B0110920A011092090128
S1130E101092100110920F0110920E0110920D0108
S1130E201092060110920501109208011092070118
S1130E308091130190911401C0911101D09112017C
S1130E40C817D90764F01EC061E0CE010E94B00E3D
S1130E508FE39CE90197F1F700C00000219680918F
S1130E601301909114018C179D0774F712C061E06F
S1130E70CE010E94B00E8FE39CE90197F1F700C008
S1130E80000021978091130190911401C817D9078C
S1130E9074F780910F0190911001C0910D01D091D0
S1130EA00E01C817D90764F01EC061E0CE010E948C
S1130EB0670E8FE39CE90197F1F700C000002196CB
S1130EC080910F01909110018C179D0774F712C047
S1130ED061E0CE010E94670E8FE39CE90197F1F770
S1130EE000C00000219780910F0190911001C81754
S1130EF0D90774F780910B0190910C01C0910901FD
S1130F00D0910A01C817D90764F01EC062E0CE016F
S1130F100E94670E8FE39CE90197F1F700C000007F
S1130F20219680910B0190910C018C179D0774F709
S1130F3012C062E0CE010E94670E8FE39CE9019724
S1130F40F1F700C00000219780910B0190910C01F2
S1130F50C817D90774F78091070190910801C091CF
S1130F600501D0910601C817D9077CF024C062E0BE
S1130F70CE010E94B00E9FEF29EF80E091502040F7
S1130F808040E1F700C00000219680910701909114
S1130F9008018C179D075CF715C062E0CE010E9422
S1130FA0B00E9FEF29EF80E0915020408040E1F7A0
S1130FB000C0000021978091070190910801C81793
S1130FC0D9075CF7C0911301D091140180911101EC
S1130FD0909112018C179D0764F01EC061E0CE0150
S1130FE00E94B00E8FE39CE90197F1F700C0000066
S1130FF021978091110190911201C817D90774F7B4
S113100012C061E0CE010E94B00E8FE39CE901970B
S1131010F1F700C000002196809111019091120116
S11310208C179D0774F7C0910F01D0911001809126
S11310300D0190910E018C179D0764F01EC061E0B4
S1131040CE010E94670E8FE39CE90197F1F700C07F
S11310500000219780910D0190910E01C817D907C6
S113106074F712C061E0CE010E94670E8FE39CE921
S11310700197F1F700C00000219680910D01909135
S11310800E018C179D0774F7C0910B01D0910C01D0
S11310908091090190910A018C179D0764F01EC08C
S11310A062E0CE010E94670E8FE39CE90197F1F79D
S11310B000C0000021978091090190910A01C8178E
S11310C0D90774F712C062E0CE010E94670E8FE365
S11310D09CE90197F1F700C0000021968091090175
S11310E090910A018C179D0774F7C0910701D09164
S11310F0080180910501909106018C179D077CF0F1
S113110024C062E0CE010E94B00E9FEF29EF80E080
S1131110915020408040E1F700C000002197809169
S1131120050190910601C817D9075CF7A0C462E0D5
S1131130CE010E94B00E9FEF29EF80E09150204035
S11311408040E1F700C00000219680910501909154
S113115006018C179D075CF78AC48BB180638BB939
S113116080911B0190911C01019721F48BB1807334
S11311708BB904C010921C0110921B01189B05C06E
S1131180809102018C3609F0A6C09FEF29EF80E020
S1131190915020408040E1F700C00000809103019D
S11311A0909104010196909304018093030110929D
S11311B002018130910509F56091130170911401C8
S11311C080E090E00E94770160910F01709110011E
S11311D081E090E00E94770160910B0170910C0115
S11311E082E090E00E94770160910701709108010C
S11311F083E090E00E9477016EC08230910509F58A
S1131200609113017091140184E090E00E947701D1
S113121060910F017091100185E090E00E947701C8
S113122060910B0170910C0186E090E00E947701BF
S1131230609107017091080187E090E00E947701B6
S11312404AC08330910509F560911301709114012E
S113125088E090E00E94770160910F017091100185
S113126089E090E00E94770160910B0170910C017C
S11312708AE090E00E947701609107017091080173
S11312808BE090E00E94770126C0049721F510922C
S113129004011092030160911301709114018CE018
S11312A090E00E94770160910F01709110018DE030
S11312B090E00E94770160910B0170910C018EE027
S11312C090E00E94770160910701709108018FE01E
S11312D090E00E947701349904C080910201813426
S11312E051F58FE59AEE0197F1F700C0000081E017
S11312F090E09093200180931F0180E090E00E9491
S1131300830161E00E94B00E81E090E00E948301BD
S113131061E00E94670E82E090E00E94830162E037
S11313200E94670E83E090E00E94830162E00E94C5
S1131330B00E10920201359904C0809102018234EA
S113134051F58FE59AEE0197F1F700C0000081E0B6
S113135090E09093200180931F0184E090E00E942C
S1131360830161E00E94B00E85E090E00E94830159
S113137061E00E94670E86E090E00E94830162E0D3
S11313800E94670E87E090E00E94830162E00E9461
S1131390B00E109202011D9904C0809102018334A1
S11313A051F58FE59AEE0197F1F700C0000081E056
S11313B090E09093200180931F0188E090E00E94C8
S11313C0830161E00E94B00E89E090E00E948301F5
S11313D061E00E94670E8AE090E00E94830162E06F
S11313E00E94670E8BE090E00E94830162E00E94FD
S11313F0B00E109202014F9904C08091020184340E
S1131400A1F58FE59AEE0197F1F700C0000081E0A5
S113141090E09093200180931F018CE090E00E9463
S1131420830161E00E94B00E8DE090E00E94830190
S113143061E00E94670E8EE090E00E94830162E00A
S11314400E94670E8FE090E00E94830162E00E9498
S1131450B00E1092020109C09FEF26E781E091507F
S113146020408040E1F700C00000189BF5CFFFC288
S11314708BB180678BB981E090E090931C018093DD
S11314801B0180910201873631F481E090E0909352
S113149016018093150180910201813631F482E0B6
S11314A090E0909316018093150180910201823699
S11314B031F483E090E090931601809315018091BC
S11314C00201833631F484E090E090931601809316
S11314D015018091150190911601019709F0AFC093
S11314E0E09102018E2F90E0FC01F097E234F105C7
S11314F008F0A5C0EC5CFF4F0C94140F61E080E091
S113150090E00E94B00E9BC061E08AE090E00E94EF
S1131510B00E95C061E084E190E00E94B00E8FC0EF
S113152061E08EE190E00E94B00E89C061E088E243
S113153090E00E94B00E83C061E082E390E00E94DC
S1131540B00E7DC061E08CE390E00E94B00E77C0E5
S113155061E086E490E00E94B00E71C061E080E535
S113156090E00E94B00E6BC061E08AE590E00E94BA
S1131570B00E65C061E084E690E00E94B00E5FC0EA
S113158061E08EE690E00E94B00E59C061E088E709
S113159090E00E94B00E53C061E082E890E00E94A7
S11315A0B00E4DC061E08CE890E00E94B00E47C0E0
S11315B061E086E990E00E94B00E41C061E080EAFB
S11315C090E00E94B00E3BC061E08AEA90E00E9485
S11315D0B00E35C061E084EB90E00E94B00E2FC0E5
S11315E061E08EEB90E00E94B00E29C061E088ECCF
S11315F090E00E94B00E23C061E082ED90E00E9472
S1131600B00E1DC061E08CED90E00E94B00E17C0DA
S113161061E086EE90E00E94B00E11C061E080EFC0
S113162090E00E94B00E0BC061E08AEF90E00E944F
S1131630B00E05C061E08FEF90E00E94B00E809183
S1131640150190911601029709F0AFC0E0910201D3
S11316508E2F90E0FC01F097E234F10508F0A5C06C
S1131660EA58FF4F0C94140F62E080E090E00E946F
S1131670670E9BC062E08AE090E00E94670E95C00E
S113168062E084E190E00E94670E8FC062E08EE128
S113169090E00E94670E89C062E088E290E00E94B8
S11316A0670E83C062E082E390E00E94670E7DC013
S11316B062E08CE390E00E94670E77C062E086E40B
S11316C090E00E94670E71C062E080E590E00E94A5
S11316D0670E6BC062E08AE590E00E94670E65C009
S11316E062E084E690E00E94670E5FC062E08EE6EE
S11316F090E00E94670E59C062E088E790E00E9483
S1131700670E53C062E082E890E00E94670E4DC00D
S113171062E08CE890E00E94670E47C062E086E9D0
S113172090E00E94670E41C062E080EA90E00E946F
S1131730670E3BC062E08AEA90E00E94670E35C003
S113174062E084EB90E00E94670E2FC062E08EEBB3
S113175090E00E94670E29C062E088EC90E00E944D
S1131760670E23C062E082ED90E00E94670E1DC008
S113177062E08CED90E00E94670E17C062E086EE96
S113178090E00E94670E11C062E080EF90E00E943A
S1131790670E0BC062E08AEF90E00E94670E05C0FE
S11317A062E08FEF90E00E94670E809115019091A6
S11317B01601039709F0A3C0E09102018E2F90E077
S11317C0FC01F097E633F10508F099C0E854FF4FA7
S11317D00C94140F61E080E090E00E94670E8FC0CB
S11317E061E08AE090E00E94670E89C061E084E1D4
S11317F090E00E94670E83C061E08EE190E00E9459
S1131800670E7DC061E088E290E00E94670E77C0B9
S113181061E082E390E00E94670E71C061E08CE3B6
S113182090E00E94670E6BC061E086E490E00E9445
S1131830670E65C061E080E590E00E94670E5FC0BE
S113184061E08AE590E00E94670E59C061E084E699
S113185090E00E94670E53C061E08EE690E00E9423
S1131860670E4DC061E088E790E00E94670E47C0B4
S113187061E082E890E00E94670E41C061E08CE87C
S113188090E00E94670E3BC061E086E990E00E9410
S1131890670E35C061E080EA90E00E94670E2FC0B9
S11318A061E08AEA90E00E94670E29C061E084EB5F
S11318B090E00E94670E23C061E08EEB90E00E94EE
S11318C0670E1DC061E088EC90E00E94670E17C0AF
S11318D061E082ED90E00E94670E11C061E08CED42
S11318E090E00E94670E0BC061E086EE90E00E94DB
S11318F0670E05C061E080EF90E00E94670E809162
S1131900150190911601049709F0AFC0E09102010E
S11319108E2F90E0FC01F097E234F10508F0A5C0A9
S1131920E251FF4F0C94140F62E080E090E00E94BB
S1131930B00E9BC062E08AE090E00E94B00E95C0B9
S113194062E084E190E00E94B00E8FC062E08EE11C
S113195090E00E94B00E89C062E088E290E00E94AC
S1131960B00E83C062E082E390E00E94B00E7DC0BE
S113197062E08CE390E00E94B00E77C062E086E4FF
S113198090E00E94B00E71C062E080E590E00E9499
S1131990B00E6BC062E08AE590E00E94B00E65C0B4
S11319A062E084E690E00E94B00E5FC062E08EE6E2
S11319B090E00E94B00E59C062E088E790E00E9477
S11319C0B00E53C062E082E890E00E94B00E4DC0B9
S11319D062E08CE890E00E94B00E47C062E086E9C5
S11319E090E00E94B00E41C062E080EA90E00E9464
S11319F0B00E3BC062E08AEA90E00E94B00E35C0AF
S1131A0062E084EB90E00E94B00E2FC062E08EEBA7
S1131A1090E00E94B00E29C062E088EC90E00E9441
S1131A20B00E23C062E082ED90E00E94B00E1DC0B3
S1131A3062E08CED90E00E94B00E17C062E086EE8A
S1131A4090E00E94B00E11C062E080EF90E00E942E
S1131A50B00E0BC062E08AEF90E00E94B00E05C0A9
S1131A6062E08FEF90E00E94B00E1092020180912C
S1131A701F0190912001892B29F4EAE7F0E080818D
S1131A80806480838FE59AEE0197F1F700C000002F
S1131A900C94B9011F920F920FB60F9211242F9339
S1131AA03F934F935F936F937F938F939F93AF93E2
S1131AB0BF93CF93DF93EF93FF9380911F01909196
S1131AC02001892B09F07CC080912301909124018D
S1131AD08130910521F11CF4892B41F071C08230D1
S1131AE09105C9F1039709F452C06AC0ECE7F0E02C
S1131AF08081887F808381E090E0909324018093AB
S1131B002301C9E7D0E0888162E090E00E94670E7B
S1131B10888190E090930C0180930B0151C0ECE715
S1131B20F0E08081887F808380818160808382E08F
S1131B3090E09093240180932301C9E7D0E0888149
S1131B4061E090E00E94670E888190E0909310011C
S1131B5080930F0135C0ECE7F0E08081887F8083BB
S1131B6080818260808383E090E09093240180935D
S1131B702301C9E7D0E0888161E090E00E94B00EC3
S1131B80888190E0909314018093130119C0ECE7CD
S1131B90F0E08081887F80838081836080831092DD
S1131BA0240110922301C9E7D0E0888162E090E02B
S1131BB00E94B00E888190E0909308018093070101
S1131BC0EAE7F0E0808180618083FF91EF91DF910B
S1131BD0CF91BF91AF919F918F917F916F915F91C1
S1131BE04F913F912F910F900FBE0F901F9018951A
S1131BF01F920F920FB60F9211248F938091C600FB
S1131C008A3011F0809302018091C00085FFFCCFDF
S1131C108F910F900FBE0F901F901895813019F07F
S1131C20823079F00895613031F4E0E8F0E08081A9
S1131C30806C80830895E0E8F0E080818068808390
S1131C400895613031F4E0E8F0E0808180638083BE
S1131C500895E0E8F0E08081806280830895109226
S1131C608000109281008830910521F08115944004
S1131C7039F00BC0E1E8F0E080818260808305C028
S1131C80E1E8F0E0808185608083E0E8F0E0808135
S1131C9082608083E1E8F0E080818861808381E074
S1131CA090E0909301018093000108952091000138
S1131CB0309101012130310529F4909387008093FC
S1131CC08600089510920101109200010895613078
S1131CD019F06230B1F008959093280180932701A0
S1131CE082959295907F9827807F982788519C4F62
S1131CF09093260180932501909389008093880016
S1131D000895909328018093270182959295907F5E
S1131D109827807F982788519C4F90932601809321
S1131D20250190938B0080938A000895E0EBF0E006
S1131D301082A1EBB0E01C92808180688083808156
S1131D408062808380818B6080838C91877F8C9379
S1131D508C9187608C9387E08093B30018BC0895BE
S1131D60613019F06230C9F0089590932C0180938A
S1131D702B0145E1489F9001499F300D1124C90171
S1131D806FEF70E00E94000F695F7F4F70932A012C
S1131D90609329016093B300089590932C0180937C
S1131DA02B014FE1489F9001499F300D1124C90137
S1131DB06FEF70E00E94000F695F7F4F70932A01FC
S1131DC0609329016093B40008958AB18E7F8AB923
S1131DD08AB182608AB91092C000E1ECF0E010820E
S1131DE0808188698083E2ECF0E0108280818660E3
S1131DF0808387E690E09093C5008093C4000895A3
S1131E0097FB072E16F4009407D077FD09D00E94A3
S1131E101A0F07FC05D03EF4909581959F4F0895C5
S1131E20709561957F4F0895EE0FFF1F0590F49113
S1131E30E02D0994AA1BBB1B51E107C0AA1FBB1FBD
S1131E40A617B70710F0A61BB70B881F991F5A9542
S1131E50A9F780959095BC01CD010895F894FFCF22
S1051E6001007B
S9030000FC
