:100000000C9434000C9451000C9451000C94510049
:100010000C9451000C9451000C9451000C9451001C
:100020000C9451000C9451000C9451000C9451000C
:100030000C9451000C9451000C9451000C945100FC
:100040000C9451000C9451000C940C060C9451002B
:100050000C9451000C945E050C9451000C945100CA
:100060000C9451000C94510011241FBECFEFD8E026
:10007000DEBFCDBF13E0A0E0B1E0E0EBFEE002C0E8
:1000800005900D92AA30B107D9F723E0AAE0B3E0BA
:1000900001C01D92AB32B207E1F70E949B000C94A5
:1000A00056070C940000ECE7F0E08081887F8083A5
:1000B000AEE7B0E08C9181608C938C9182608C93E0
:1000C0008C9184608C938C9188608C938081806209
:1000D000808380818064808380818F778083EAE75A
:1000E000F0E0808188608083808187608083808168
:1000F000806880830895F89484B18E6084B917B8BD
:100100008AB188608AB988E090E00E94450660E084
:1001100082E00E94240660E081E00E9424068FE2D3
:1001200095E70E946C060E9453000E94AC060E9454
:10013000FB06789408950E947B0080911D039091A6
:100140001E03892B09F0A8C480911F0390912003FE
:10015000009709F582E091E00E9416078AE00E946C
:1001600027078DE00E9427078AE00E94270784E680
:1001700091E00E9416078AE00E9427078DE00E9406
:10018000270780911F0390912003019690932003ED
:1001900080931F0381C48130910509F067C02091CD
:1001A0000A03222309F478C42091190330911A0319
:1001B0002F3F31053CF02EEF30E030931A032093AF
:1001C000190307C02230310524F410921A0310924B
:1001D000190320910A032234D1F0223569F1213428
:1001E00009F05AC481E090E090931C0380931B03B4
:1001F0008091190390911A030A9690931A038093A1
:10020000190361E00E94C60610920A0345C481E00A
:1002100090E090931C0380931B03809119039091AD
:100220001A030A9790931A038093190361E00E94BE
:10023000C60610920A0330C42091190330911A03A4
:100240003093180320931703019690932003809313
:100250001F0382E991E00E9416078AE00E942707A7
:100260008DE00E94270710920A0316C48230910580
:1002700009F053C020910A03222309F40DC42091F0
:100280001703309118032F3F31053CF02EEF30E07B
:10029000309318032093170307C02230310524F44C
:1002A000109218031092170320910A032234A1F030
:1002B000223509F1213409F0EFC3809117039091A1
:1002C00018030A96909318038093170361E00E9425
:1002D000C60610920A03E0C3809117039091180399
:1002E0000A97909318038093170361E00E94C60653
:1002F00010920A03D1C301969093200380931F03A9
:100300008FEB91E00E9416078AE00E9427078DE09C
:100310000E94270710920A03BFC38330910509F09A
:100320005CC020910A03222309F4B6C3209115036F
:10033000309116032F3F31053CF02EEF30E0309323
:1003400016032093150307C02230310524F41092C0
:1003500016031092150320910A03223431F022353E
:1003600011F1213409F098C30FC0809115039091C9
:1003700016030A96909316038093150361E00E947A
:100380007D0610920A0388C380911503909116038D
:100390000A97909316038093150361E00E947D06EF
:1003A00010920A0379C320911503309116033093FC
:1003B00014032093130301969093200380931F034B
:1003C0008EEE91E00E9416078AE00E9427078DE0DA
:1003D0000E94270710920A035FC38430910509F039
:1003E00054C020910A03222309F456C32091130319
:1003F000309114032F3F31053CF02EEF30E0309365
:1004000014032093130307C02230310524F4109203
:1004100014031092130320910A03223431F0223581
:1004200011F1213409F038C30FC08091130390916A
:1004300014030A96909314038093130361E00E94BF
:100440007D0610920A0328C3809113039091140330
:100450000A97909314038093130361E00E947D0632
:1004600010920A0319C301969093200380931F03EF
:100470008BE192E00E9416078AE00E9427078DE038
:100480000E94270710920A0307C38530910509F0DF
:100490005CC020910A03222309F4FEC220911103BB
:1004A000309112032F3F31053CF02EEF30E03093B6
:1004B00012032093110307C02230310524F4109257
:1004C00012031092110320910A03223431F02235D5
:1004D00011F1213409F0E0C20FC080911103909115
:1004E00012030A96909312038093110362E00E9414
:1004F0007D0610920A03D0C28091110390911203DD
:100500000A97909312038093110362E00E947D0684
:1005100010920A03C1C201969093200380931F0397
:1005200089E492E00E9416078AE00E9427078DE086
:100530000E9427078091110390911203909310035A
:1005400080930F0310920A03A7C28630910509F029
:1005500054C020910A03222309F49EC220910F0364
:10056000309110032F3F31053CF02EEF30E03093F7
:10057000100320930F0307C02230310524F410929A
:10058000100310920F0320910A03223431F0223518
:1005900011F1213409F080C20FC080910F039091B6
:1005A00010030A969093100380930F0362E00E9459
:1005B0007D0610920A0370C280910F039091100380
:1005C0000A979093100380930F0362E00E947D06C8
:1005D00010920A0361C201969093200380931F0337
:1005E00085E792E00E9416078AE00E9427078DE0C7
:1005F0000E94270710920A034FC28730910509F025
:100600005CC020910A03222309F446C220910D0305
:1006100030910E032F3F31053CF02EEF30E0309348
:100620000E0320930D0307C02230310524F41092ED
:100630000E0310920D0320910A03223431F022356B
:1006400011F1213409F028C20FC080910D0390915F
:100650000E03059690930E0380930D0362E00E94B3
:10066000C60610920A0318C280910D0390910E03E2
:10067000059790930E0380930D0362E00E94C606D7
:1006800010920A0309C201969093200380931F03DE
:1006900087EA92E00E9416078AE00E9427078DE011
:1006A0000E94270780910D0390910E0390930C03F5
:1006B00080930B0310920A03EFC18830910509F073
:1006C00054C020910A03222309F4E6C120910B03B0
:1006D00030910C032F3F31053CF02EEF30E030938A
:1006E0000C0320930B0307C02230310524F4109231
:1006F0000C0310920B0320910A03223431F02235AF
:1007000011F1213409F0C8C10FC080910B03909101
:100710000C03059690930C0380930B0362E00E94F8
:10072000C60610920A03B8C180910B0390910C0386
:10073000059790930C0380930B0362E00E94C6061A
:1007400010920A03A9C101969093200380931F037E
:1007500087ED92E00E9416078AE00E9427078DE04D
:100760000E94270710920A0397C1099709F094C1C4
:1007700080910A03882341F010921C0310921B03FE
:100780001092200310921F038091190390911A0375
:10079000C0911703D0911803C817D90764F01EC081
:1007A00061E0CE010E94C6068FE295E70197F1F75E
:1007B00000C0000021968091190390911A038C17B4
:1007C0009D0774F712C061E0CE010E94C6068FE259
:1007D00095E70197F1F700C0000021978091190378
:1007E00090911A03C817D90774F780911503909157
:1007F0001603C0911303D0911403C817D90764F0EE
:100800001EC061E0CE010E947D068FE295E7019750
:10081000F1F700C000002196809115039091160316
:100820008C179D0774F712C061E0CE010E947D060F
:100830008FE295E70197F1F700C0000021978091C2
:10084000150390911603C817D90774F78091110307
:1008500090911203C0910F03D0911003C817D907CC
:1008600064F01EC062E0CE010E947D068FE295E733
:100870000197F1F700C0000021968091110390913B
:1008800012038C179D0774F712C062E0CE010E941C
:100890007D068FE295E70197F1F700C000002197F0
:1008A0008091110390911203C817D90774F78091B2
:1008B0000D0390910E03C0910B03D0910C03C81748
:1008C000D90764F01EC062E0CE010E94C6068FE523
:1008D0009AEE0197F1F700C00000219680910D0378
:1008E00090910E038C179D0774F712C062E0CE0141
:1008F0000E94C6068FE59AEE0197F1F700C000004E
:10090000219780910D0390910E03C817D90774F7B2
:10091000C0911903D0911A03809117039091180385
:100920008C179D0764F01EC061E0CE010E94C606D0
:100930008FE295E70197F1F700C0000021978091C1
:10094000170390911803C817D90774F712C061E014
:10095000CE010E94C6068FE295E70197F1F700C02D
:100960000000219680911703909118038C179D0722
:1009700074F7C0911503D0911603809113039091E1
:1009800014038C179D0764F01EC061E0CE010E9425
:100990007D068FE295E70197F1F700C000002197EF
:1009A0008091130390911403C817D90774F712C0EC
:1009B00061E0CE010E947D068FE295E70197F1F795
:1009C00000C00000219680911303909114038C17AE
:1009D0009D0774F7C0911103D091120380910F030A
:1009E000909110038C179D0764F01EC062E0CE0149
:1009F0000E947D068FE295E70197F1F700C00000A5
:100A0000219780910F0390911003C817D90774F7AD
:100A100012C062E0CE010E947D068FE295E7019749
:100A2000F1F700C00000219680910F039091100310
:100A30008C179D0774F7C0910D03D0910E03809120
:100A40000B0390910C038C179D0764F01EC062E0AD
:100A5000CE010E94C6068FE59AEE0197F1F700C01D
:100A60000000219780910B0390910C03C817D907C0
:100A700074F712C062E0CE010E94C6068FE59AEEBE
:100A80000197F1F700C00000219680910B0390912F
:100A90000C038C179D0774F780911B0390911C0326
:100AA000892B29F4EAE7F0E080818064808387EC79
:100AB0009FEA0197F1F700C000003FCB1F920F9211
:100AC0000FB60F9211242F933F934F935F936F9321
:100AD0007F938F939F93AF93BF93CF93DF93EF93C6
:100AE000FF9380911B0390911C03892B09F07CC01C
:100AF00080912103909122038130910521F11CF412
:100B0000892B41F071C082309105C9F1039709F436
:100B100052C06AC0ECE7F0E08081887F808381E08A
:100B200090E09093220380932103C9E7D0E088816D
:100B300062E090E00E947D06888190E0909312032D
:100B40008093110351C0ECE7F0E08081887F8083BF
:100B500080818160808382E090E090932203809383
:100B60002103C9E7D0E0888161E090E00E947D0622
:100B7000888190E0909316038093150335C0ECE7CD
:100B8000F0E08081887F808380818260808383E041
:100B900090E09093220380932103C9E7D0E08881FD
:100BA00061E090E00E94C606888190E090931A036D
:100BB0008093190319C0ECE7F0E08081887F80837F
:100BC0008081836080831092220310922103C9E701
:100BD000D0E0888162E090E00E94C606888190E0C3
:100BE00090930E0380930D03EAE7F0E0808180612B
:100BF0008083FF91EF91DF91CF91BF91AF919F9152
:100C00008F917F916F915F914F913F912F910F90B5
:100C10000FBE0F901F9018951F920F920FB60F9254
:100C200011248F938091C60080930A038091C000A5
:100C300085FFFCCF80910A038093C6008F910F90AF
:100C40000FBE0F901F901895813019F0823079F007
:100C50000895613031F4E0E8F0E08081806C8083B9
:100C60000895E0E8F0E08081806880830895613035
:100C700031F4E0E8F0E08081806380830895E0E86B
:100C8000F0E080818062808308951092800010924D
:100C900081008830910521F08115944039F00BC016
:100CA000E1E8F0E080818260808305C0E1E8F0E067
:100CB000808185608083E0E8F0E0808182608083CD
:100CC000E1E8F0E080818861808381E090E09093AA
:100CD00001018093000108952091000130910101EC
:100CE0002130310529F49093870080938600089580
:100CF00010920101109200010895613019F06230E4
:100D0000B1F00895909326038093250382959295E0
:100D1000907F9827807F982788519C4F9093240339
:100D20008093230390938900809388000895909383
:100D300026038093250382959295907F9827807F44
:100D4000982788519C4F909324038093230390937A
:100D50008B0080938A000895E0EBF0E01082A1EB15
:100D6000B0E01C9280818068808380818062808373
:100D700080818B6080838C91877F8C938C9187603E
:100D80008C9387E08093B30018BC0895613019F00C
:100D90006230C9F0089590932A038093290345E1B6
:100DA000489F9001499F300D1124C9016FEF70E0F9
:100DB0000E942E07695F7F4F70932803609327037B
:100DC0006093B300089590932A03809329034FE121
:100DD000489F9001499F300D1124C9016FEF70E0C9
:100DE0000E942E07695F7F4F70932803609327034B
:100DF0006093B40008958AB18E7F8AB98AB1826007
:100E00008AB91092C000E1ECF0E01082808188691C
:100E10008083E2ECF0E0108280818660808387E648
:100E200090E09093C5008093C4000895AC0120E049
:100E300007C09091C00095FFFCCF3093C6002F5F94
:100E4000FA01E20FF11D30813111F3CF0895909135
:100E5000C00095FFFCCF8093C600089597FB072E36
:100E600016F4009407D077FD09D00E94420707FCD2
:100E700005D03EF4909581959F4F089570956195AA
:100E80007F4F0895AA1BBB1B51E107C0AA1FBB1FC0
:100E9000A617B70710F0A61BB70B881F991F5A9506
:100EA000A9F780959095BC01CD010895F894FFCFE6
:100EB00001000A0D20202020202A2A2A2A2A2A2A54
:100EC0002A2A2A2A2A2A2A486F6C6120636F6D6FAA
:100ED00020657374612C20412070617261207375EC
:100EE0006269722C204220706172612062616A61C5
:100EF000722C2052207061726120636F6E6669727D
:100F00006D61722A2A2A2A2A2A2A2A2A2A2A2A2A7F
:100F10002A2A2A0020202020202020202020436F61
:100F20006C6F71756520706F736963696F6E206493
:100F30006520696E6963696F2064652067617272FC
:100F400061000A0D20202020202020202020204386
:100F50006F6C6F71756520706F736963696F6E2058
:100F600066696E616C206465206761727261000A57
:100F70000D2020202020202020202020436F6C6F77
:100F800071756520706F736963696F6E20696E6932
:100F90006369616C206465206272617A6F000A0D7A
:100FA0002020202020202020202020436F6C6F71E3
:100FB000756520706F736963696F6E2066696E6115
:100FC0006C206465206272617A6F000A0D20202017
:100FD0002020202020202020436F6C6F7175652019
:100FE000706F736963696F6E20696E696369616CA4
:100FF00020646520636F646F000A0D20202020208C
:10100000202020202020436F6C6F71756520706F49
:10101000736963696F6E2066696E616C2064652018
:10102000636F646F000A0D202020202020202020E4
:101030002020436F6C6F71756520706F73696369F1
:101040006F6E20696E696369616C20646520726FE0
:10105000746163696F6E000A0D202020202020201B
:1010600020202020436F6C6F71756520706F73694D
:1010700063696F6E2066696E616C20646520726FB3
:10108000746163696F6E000A0D20202020202020EB
:1010900020202020436F6C6F717565205220706195
:1010A0007261205465726D696E6172206C6120738B
:0A10B000656375656E6369610000F9
:00000001FF
